:020000041004E6
:100000000060002065180410054104101941041017
:10001000AA5555AA45554C420000000000000000BA
:100020000000000000000000000000002D4104104E
:100030000000000000000000F71704102F4104101A
:10004000F9170410FB170410FD170410FF17041014
:100050000000000000000000000000000118041073
:100060003141041003180410051804100718041077
:1000700009180410B56804100B1804103B41041053
:100080000D18041039410410634104100F180410B6
:100090004D410410111804101318041045410410A8
:1000A0003D41041083410410151804101718041062
:1000B0000000000000000000000000000000000040
:1000C00010B5904216D98AB2030C090C0C4659435C
:1000D00080B25343444350431B191A041B0C10189D
:1000E000594180225203002312184B41520DD8026D
:1000F000104310BD4843802252031218520D10467F
:1001000010BDC046EFF31482EFF30981154880F368
:100110001488BFF36F8FF0B543464C4655465E4694
:100120006746F8B4104CEFF30883636006B4BFF37E
:100130004F8F30BFC046C0460B4C646884F30888BC
:1001400082B003BCF8BC9846A146AA46B346BC465A
:10015000F0BC04BC80F3098881F31488BFF36F8F6F
:100160001047C04600000000040000208B0707D0A5
:10017000013A22D30B780131037001308B07F7D19C
:10018000830730D0DB4219D00138043A08D308C9BC
:1001900043701B0A43801B0C03710430043AF6D2EF
:1001A000D20707D30B88437001D08A78C2701B0A2C
:1001B0008370704701D00B7843707047043A06D3C0
:1001C00008C903801B0C43800430043AF8D2D207DC
:1001D00005D30B88038005D08B788370704701D0DE
:1001E0000B780370704770B4103A03D378C978C0A5
:1001F000103AFBD2530701D318C918C001D508C95A
:1002000008C0D20704D30B88038002300231002AD1
:1002100001D50B78037070BC7047C04602B47146BC
:1002200049084900095C49008E4402BC7047C04639
:1002300003B47146490840004900095E49008E44F4
:1002400003BC7047002243088B4274D303098B42DE
:100250005FD3030A8B4244D3030B8B4228D3030C96
:100260008B420DD3FF22090212BA030C8B4202D338
:100270001212090265D0030B8B4219D300E0090A60
:10028000C30B8B4201D3CB03C01A5241830B8B4269
:1002900001D38B03C01A5241430B8B4201D34B0352
:1002A000C01A5241030B8B4201D30B03C01A5241B7
:1002B000C30A8B4201D3CB02C01A5241830A8B423C
:1002C00001D38B02C01A5241430A8B4201D34B0225
:1002D000C01A5241030A8B4201D30B02C01A524189
:1002E000CDD2C3098B4201D3CB01C01A524183093D
:1002F0008B4201D38B01C01A524143098B4201D377
:100300004B01C01A524103098B4201D30B01C01AA1
:100310005241C3088B4201D3CB00C01A524183081B
:100320008B4201D38B00C01A524143088B4201D348
:100330004B00C01A5241411A00D2014652411046A8
:100340007047FFE701B5002000F006F802BDC04687
:100350000029F7D076E770477047C0469140031CEC
:1003600090409C46203A9340194352426346D34002
:10037000194370478446081C6146FFE71FB500F02B
:10038000DBFA002801D40021C8421FBD10B500F0DF
:100390005FFA4042013010BD10B500F0CDFA0028E0
:1003A00001DB002010BD012010BDC04610B500F0DB
:1003B000C3FA002801DD002010BD012010BDC04699
:1003C00010B500F06DFA002801DC002010BD0120FE
:1003D00010BDC04610B500F063FA002801DA002015
:1003E00010BD012010BDC046002B11D1002A0FD135
:1003F000002900D1002802D00021C943081C07B4FD
:10040000024802A14018029003BDC0464DFFFFFF05
:1004100003B4684601B5029800F006F8019B9E46B9
:1004200002B00CBC7047C046F0B557464E46454634
:10043000DE46E0B504000D009246994683B08B423B
:1004400030D82DD04946504600F026FE290006003F
:10045000200000F021FE331A9846203B9B4633D4FF
:100460005A465346934042461F00534693401E004F
:10047000AF423AD8AF4200D178E05B46A41BBD4101
:10048000002B00DA75E00022002300920193012383
:100490005A4693400193012342469340009328E03B
:1004A0008242CFD900220023009201930C9B002BA3
:1004B00001D01C605D600098019903B03CBC90467F
:1004C0009946A246AB46F0BD424620239B1A5246AF
:1004D000DA40414613004A468A40170042461F430D
:1004E000534693401E00AF42C4D90022002300921D
:1004F00001934346002BD9D0FB0772081A434646A6
:100500007B080EE0AB4201D1A2420CD8A41A9D4157
:10051000012024196D410021013E24184D41002E77
:1005200006D0AB42EED9013E24196D41002EF8D120
:10053000009801995B4600196941002B24DB2B00D0
:100540005A464446D3402A00E2401C005B46150050
:10055000002B2ADB26009E40330026004746BE4083
:100560003200801A9941009001919FE7A342BCD8C4
:1005700083E74246202300219B1A0022009101922A
:100580000122DA40019286E7424620239B1A2A0084
:1005900046469A402300F340444613432A00E24073
:1005A0001C005B461500002BD4DA42462F002023A6
:1005B000260097409B1ADE403B003343CDE7C04600
:1005C000437802781B021A438378C0781B041343D4
:1005D000000618437047C046030A4B7003021B0E07
:1005E0008B70030E0870CB707047C04603005A78BA
:1005F0000078120202439878197900040243D878EF
:10060000000610435A7912020A43997909040A43F1
:10061000D979090611437047030A5370030C93708C
:10062000030ED3700B0A53710B021B0E93710B0E4A
:1006300010701171D3717047F0B54F464646D646DB
:100640004502C0B547000C1C6D0A3F0EC60F002FB7
:1006500066D0FF2F6CD00023EA00802599469A4689
:10066000ED0415437F3F60026100430A9846090E7E
:10067000E40F002948D0FF2910D08022D800D204EE
:100680000243904600207F394A4633007F1A0243D6
:100690006C4992008A586340DBB29746002B6DD1BB
:1006A0000220FF3F33E0002398462600454682465D
:1006B0005346022B00D17FE0032B00D194E0012BA5
:1006C00017D038007F3000285FDD6B0704D00F2380
:1006D0002B40042B00D004352B0103D538005A4B96
:1006E00080301D40FE2867DCAD016D0AC0B202E01B
:1006F0001E0000200025C0052843F60730431CBC1F
:1007000090469946A246F0BD002B2BD101204A46C7
:1007100033004E49024392008A586340DBB2974649
:10072000002D13D104239946033B00279A469AE7EC
:10073000002D05D108239946063BFF279A4692E7EC
:100740000C239946093BFF279A468CE7280000F0C6
:1007500085FC7627431F9D4000237F4299469A4699
:100760003F1A80E7180000F079FC4246431F7621CB
:100770009A404942091A9046002085E7FF2103204C
:1007800082E71E00FF200025B5E701231B1A1B2B63
:10079000AFDC9E372900BD40D9406A1E95410D430C
:1007A0006B0704D00F232B40042B00D004356B01C2
:1007B00044D5012000259EE7FF2000259BE78025EA
:1007C0000026FF20ED0396E7002398468020C00313
:1007D000054209D04346034206D1454605436D0212
:1007E0002600FF206D0A86E78020C00305436D02C6
:1007F000FF206D0A7FE741466A014801824219D213
:100800001B210025013F012614006D005200002C21
:1008100001DB904201D8121A354301390029F3D186
:10082000501E824138007F301E001543002800DD35
:100830004BE7AAE71A210125121AE4E7AD010020CF
:100840006D0A58E720850510FFFFFFF7608505104A
:1008500070B542004E024C0045026D0A120EC30FE5
:10086000760A240EC90FFF2A0FD0FF2C11D00120C9
:10087000A24200D070BDB542FCD18B420DD0002AFF
:10088000F8D12800451EA841F4E70120002DF1D140
:10089000EBE70120002EEDD1E9E70020EAE7C046B2
:1008A000F0B5420046024D024C00C30F760A120E0C
:1008B0006D0A240EC80FFF2A1FD0FF2C10D0002A6B
:1008C0001FD171427141002C01D1002D1ED0002991
:1008D0000ED183421ED00221581E08400138F0BDBF
:1008E000002D26D1002AF4D1714271410029F0D0A7
:1008F0000028F4D101204042F1E7002E19D1FF2C4D
:10090000EED0002CE5D1002DE3D1E4E70020002E4D
:10091000E5D0E0E7A24205DCEADBAE4202D8E7D34D
:100920000020DCE7414241414842022108400138B1
:10093000D5E702204042D2E7F0B5420046024D0220
:100940004C00C30F760A120E6D0A240EC80FFF2A40
:100950000DD0FF2C0FD0002A23D171427141002C01
:100960000FD1002D0DD10020002E14D00DE0002E4F
:1009700010D1FF2C15D1002D0CD1002A03D17142CA
:100980007141002908D1834210D00221581E08402D
:10099000013800E00220F0BD0028FCD101204042D7
:1009A000F9E7002CEFD1002DEDD1EEE7A24205DCF6
:1009B000F2DBAE4202D8EFD30020ECE741424141E6
:1009C0004842022108400138E5E7C046F8B55746DD
:1009D0004E464546DE464402E0B545000F1C640A1B
:1009E0002D0EC60F002D47D0FF2D4DD000238020A7
:1009F0009A469B46E400C00404437F3D7802430AC4
:100A000099467A00FB0F9846120E4B4644D0FF2AB7
:100A100011D0D8008023DB040343994600207F3A9D
:100A2000AD18474653467740691C0F2B3FD8724A92
:100A30009B00D3589F46FF35002B00D079E05246EB
:100A400002231A4392460220EBE747464C46834670
:100A50005B46022B28D0032B00D1C6E0012B4FD1DF
:100A600000200024C005FF07204338433CBC9046CB
:100A70009946A246AB46F8BD002C71D104239A4694
:100A8000033B00259B46B9E7002C63D108239A4617
:100A9000063BFF259B46B1E7002B50D15246013360
:100AA0001A4392460120BCE7FF200024DAE74846BB
:100AB000260C2404220C0404240C4B4620001B0C9E
:100AC000504374435A435E431219030C9B189C42D3
:100AD00003D9802252029446664400041A04000C92
:100AE00012189401601E84411B0C920E9B19144332
:100AF0009B011C431B0172D50120630804401C4369
:100B000008007F3000283CDD630704D00F2323401A
:100B1000042B00D00434230103D580310800374B67
:100B20001C40FE28C0DCA401640AC0B29AE737006A
:100B30008EE7524603231A439246032071E7484644
:100B400000F08CFA4A46431F9A402D1A9146002025
:100B5000763D66E70C239A46093BFF259B464DE709
:100B6000200000F07BFA7625431F9C4000236D4255
:100B70009A469B462D1A41E780240027FF20E40374
:100B800070E701231B1A1B2B00DD69E79E31200053
:100B90008C40D840631E9C410443630704D00F235C
:100BA0002340042B00D0043463011AD50120002413
:100BB00058E78020C003044209D04B46034206D1C7
:100BC0004C46044364024746FF20640A4AE78020FB
:100BD000C003044364023700FF20640A42E729008F
:100BE0008EE7A4010020640A3CE78020C003044390
:100BF0006402FF20640A35E7A0850510FFFFFFF7B8
:100C0000F0B54646D6464F4643025B0ADA009446A4
:100C10004A02C0B54400560A051CB046240E4E00D8
:100C200092091F0020009246ED0F360EC90FFF2ECD
:100C300000D17FE0012251408D4251D0A21B91464C
:100C4000002A00DC7EE0002E00D199E0FF2C00D1CC
:100C50008CE080235246DB041A4392464A46012325
:100C60001B2A08DC53462021D340891A52468A4069
:100C7000511E8A4113436246D31A5A0100D4F3E04D
:100C80009B019E09300000F0E9F905388640844256
:100C900000DDF7E03200041B20200134E240041B99
:100CA000A64033005E1EB341002413435A0704D00C
:100CB0000F221A40042A00D004335A0100D4D6E08F
:100CC000621CFE2C00D1DAE09B015F0AD0B2C005A5
:100CD0003843ED0728431CBC90469946A246F0BD18
:100CE000A21B9146002A63DD002E00D199E0FF2C63
:100CF0003CD080235246DB041A4392464A460123E5
:100D00001B2A08DC53462021D340891A52468A40C8
:100D1000511E8A41134363445A0100D4A4E00134B4
:100D2000FF2C00D1ABE0012297491A405B080B4031
:100D30001343BBE7002A32D08D4235D0FF22524206
:100D40009146A1444A46002A51D0301B002C00D0C5
:100D50009CE06346002B00D1DFE00138002800D181
:100D6000F7E0FF2E00D099E00D004346002B00D1A4
:100D700085E08027FF031F437F02FF207F0AA6E74D
:100D80005246002A74D0012252429046C1444A463B
:100D9000002A00D1C8E0FF2C00D05FE7E6E701227F
:100DA0005140A94200D049E7FF2252429146A14456
:100DB0004A46002A43D0311B002C00D18CE0FF2E84
:100DC00000D192E080236246DB041A43944601235B
:100DD0001B2909DC202063466246CB40411A8A4029
:100DE0001100481E81410B433400534494E7FE2216
:100DF000661C324264D1002C00D082E06346002B96
:100E000000D1ABE05346002B00D160E76346524669
:100E10009B1A5A0100D4AAE0634652460D00D31A29
:100E200044E75246002A23D0012252429046C14450
:100E30004A46002A75D0FF2C00D05FE796E7FE26D1
:100E40000134264253D1002872D16346002B00D1D1
:100E500093E05346002B00D139E7634400245A0144
:100E600002D54A4A013413405A0700D020E7DB0874
:100E7000FF2C00D17AE75B025F0AE0B227E7FF2090
:100E8000002724E7414B241A33400FE7FF2E00D1FF
:100E90006AE780236246DB041A43944601231B2839
:100EA00009DC202463466246C340201A82401000B9
:100EB000441EA041034352460D003400D31ADCE621
:100EC000634652469E1A730117D4002E00D0D9E60D
:100ED000002500200027FAE66346002B44D00139A4
:100EE00000294CD0FF2E00D071E743463EE7FF2C8F
:100EF000C5D0524662445308B6E763460D00D61A81
:100F0000C0E66246002A16D15346002B00D02BE7DC
:100F100080270025FF20FF03D9E60D00434634005B
:100F2000A6E753466344F7E6634652469B1AA4E697
:100F30006246002AD9D05246002A00D116E7802204
:100F4000D203134200D111E74046104200D00DE712
:100F50000AE752460D003400D31A8EE65346002BA2
:100F600008D00D004746B2E64346340080E7002B28
:100F700000D079E700250027A9E64746A7E65346B3
:100F800034006344C8E6C046FFFFFF7DFFFFFFFB60
:100F900041024200C30F490A0020120E7E2A03D9E3
:100FA0009D2A02D9094A98187047802000040143FD
:100FB000952A07DC9620821AD1404842002BF3D1B3
:100FC0000800F1E7963A9140F7E7C046FFFFFF7F40
:100FD00070B5002813D0C317C5185D40C40F280092
:100FE00000F03CF89E2301001B1A962B0FDC08280A
:100FF00001DD08398D406D026D0AD8B202E000248F
:1010000000200025C0052843E407204370BD992B2C
:101010000BDD05222E00121AD64002001B3295402D
:101020002800451EA84135000543052901DD4A1F5A
:1010300095402A00084E3240680709D00F2028400A
:10104000042805D00432500102D59F2332405B1A98
:101050009201550AD8B2D5E7FFFFFFFB1C210123FF
:101060001B04984201D3000C10391B0A984201D38B
:10107000000A08391B09984201D30009043902A269
:10108000105C40187047C0460403020201010101D0
:10109000000000000000000010B5002903D1FFF798
:1010A000DDFF203002E0081CFFF7D8FF10BDC0466E
:1010B00001000A4A0A4810B51368046800209C42DF
:1010C00009D00848C05C013308708021C9008B42F8
:1010D00002D00120136010BD0023FAE7240800208D
:1010E0002008002020040020F0B504244C4B0C25DF
:1010F000196D85B02143196590211A6DC9052240EB
:101100000392039A0A682419AA4322430A608A6850
:10111000A446AA4322438A6002224C6894434C604E
:10112000404C666A96436662266A16432662F0263B
:101130000F6AB743D03E374366460F62196D31439D
:101140001965196D3140029102993749053E0F68C2
:10115000B74317430F608F68B74317438F6001276A
:101160004E68BE434E60E66ABE43E662A66A3E43F0
:10117000A6620F260C6AB4430C628024996DE400C9
:10118000214399658B219B6D23400193019B274B44
:10119000274CD9601968214019605968254C2140B5
:1011A00059601968244CA9430D431D60996821407A
:1011B00099609968214C214099609968C900C908D3
:1011C000996080211C6889052143196059681C4C6D
:1011D00021402A2459609968A143996019680F43F6
:1011E0001F60002819D0C224164911360860FF205C
:1011F0001968A4000E431E60134B1959814308005F
:101200004021014319518021490019600F4B186892
:1012100000238068190005F0ABFD05B0F0BDC046A5
:1012200000004048000050480000104800400041C5
:10123000FFE9FFEFFFCFFFFFFFFCFFFFFFFFFFF125
:10124000FFB7FFFF1C04002000E100E01C0E00209F
:10125000802210B5054B4118884200D110BDDC69D1
:101260001442FCD0047801309C62F5E70040004154
:10127000074B07B51B68002B09D0064AD1698906C0
:1012800005D56946526AC81D02700121984707BDFD
:101290001C04002000400041F0B5802600240127F6
:1012A000094A0A4D13684118F600814203D1002C07
:1012B00000D01360F0BD0478EC540133B34200D188
:1012C00000233C000130F0E720080020200400202B
:1012D0000120024BDB69DB0D984370470040004161
:1012E000044B0120DA69120602D5DB699B09984399
:1012F0007047C046004000410120404270478023B3
:101300009B0100204B607047012070470020704710
:1013100070B50E0014000025A54201DB200070BD51
:1013200070190121FFF794FF0135F5E770B50E0044
:1013300015000024AC4208D23019FFF7B9FE00288E
:1013400001D10134F6E7002CF4D0200070BD00007C
:10135000034B9A6A82439A62DA6A8243DA6270477E
:1013600000005048082130B5304C8020226D85B0F7
:101370000A4322658022236D2D4D0B400393039B6E
:101380002C492B6812020B4013432B60AB680B40B7
:101390001A43AA606B68834303436B60FFF7D8FF6F
:1013A00004212B6A03201B011B092B62226D0A43B7
:1013B0002265236D0B400293029B9023DB051A6884
:1013C000023982430A431A609A6882431143012218
:1013D000996059689143114359601749086A9043CD
:1013E0000862486A904348620F20196A814380204E
:1013F0001962A16D80030143A165A36D03400193B0
:10140000019B8223DB0519680C48914319600C4944
:10141000196119680140196019680A48014019608A
:1014200019680A431A6005B030BDC0460000404844
:1014300000001048FF3FFFFF00005048FFFFFDFF86
:1014400009033210FFFFCFFF8220C00570B5456849
:10145000114E5C1C354024042C43104D2C43446039
:10146000012485692542FCD08024214382248162A5
:101470000121E405A0690842FCD082210220D31892
:10148000C9059A4201D1002070BD8C690442FCD08C
:10149000147801328C62F4E7008000FCB9200082ED
:1014A00070B58224E405666808001449144D0E40A6
:1014B000354365600D000121A6690E42FCD08021F4
:1014C0000843A06282247F39E405A0690842FCD069
:1014D00061681804294001430A48D3180143616038
:1014E00082210420C9059A4201D1002070BD8C6977
:1014F0000442FCD04C6A14700132F4E7008000FC16
:10150000B9200182B9240082034B5A6A82435A628D
:101510001A6A10431862704700005048034B1A6A59
:1015200082431A625A6A104358627047000050485A
:10153000034BDA6A8243DA629A6A10439862704710
:1015400000005048034B9A6A82439A62DA6A104359
:10155000D86270470000504810B50120FFF7D4FF53
:101560000220FFF7D1FF0420FFF7D8FF0820FFF784
:10157000CBFF80204000FFF7D1FF80208000FFF7E5
:10158000CDFF8020C000FFF7C9FF80200001FFF7DA
:10159000C5FF0120FFF7D6FF0220FFF7C9FF042097
:1015A000FFF7C6FF0820FFF7CDFF1020FFF7C0FFB1
:1015B0002020FFF7C7FF4020FFF7C4FF8020FFF780
:1015C000B7FF8020C001FFF7BDFF80200002FFF7BA
:1015D000AFFF10BD034B9A6A82439A62DA6A824374
:1015E000DA627047000050480820054A82B0116D49
:1015F00001431165136D03400193019B02B07047D5
:101600000000404870B5002815D1FFF7EDFF02201B
:101610000C2404221A4B98611968A1430A431A60EA
:1016200008229968A1430A439A605A6882435A6023
:10163000FFF7D0FF70BD012810D1FFF7D5FF1020B4
:1016400080240F4B0F4998611D6864000D402C43A6
:101650001C609A68114080229200E4E70228E9D1D8
:10166000FFF7C2FF042030241022054B986119684F
:10167000A1430A431A6099682022A143D3E7C046D8
:1016800000001048FFFCFFFF002803D10222064B98
:101690009A627047012802D11022034BF8E7022812
:1016A000F7D10422004BF3E700001048002803D1D3
:1016B0000222064B9A617047012802D11022034B87
:1016C000F8E70228F7D10422004BF3E700001048A6
:1016D00010B544688068A04710BD10B504688068E4
:1016E000A04710BD10B5FFF773FC0249FEF7A4FF39
:1016F00010BDC0460000C84237B501230C0001AA46
:1017000010210500FFF7E4FF00280ED101236A46EF
:101710001C4061001479022294436A460C43147100
:101720001021280001AAFFF7D8FF3EBD37B50123DD
:101730000C006A4610210500FFF7CAFF00282BD1D4
:1017400001231121280001AAFFF7C2FF002823D19D
:10175000072323401A016B4670211B7828008B4316
:1017600013436A46603913700123FFF7B6FF002860
:1017700012D1012322091A409A40E4081C40144364
:101780006A461179032291436A460C431471112170
:10179000280001AAFFF7A1FF3EBD10B50A000223F1
:1017A0002B21FFF795FF10BD37B501230C0001AACF
:1017B00011210500FFF78CFF00280ED101236A4696
:1017C0001C40A1001479042294436A460C4314710E
:1017D0001121280001AAFFF780FF3EBD37B50C009C
:1017E00001AD2A0001231121FFF772FF2B785B075F
:1017F000DB0F23703EBD70477047704770477047DE
:101800007047704770477047704770477047704720
:1018100070477047704770470D4B10B51B68002B21
:1018200014D10C4B1A69002A02D19B6B002B0DD0EE
:101830000122094B9A60FEF77FFCBFF34F8F074BE5
:10184000074ADA60BFF34F8FC046FDE7012010BDA5
:1018500094004048000050480400002000ED00E0E3
:101860000400FA0510B5FFF7D7FF01280ED10E4A84
:101870000E4B0F498B420FD300210E4B0E4A934261
:101880000DD300210D4B0E4A93420AD30D4B83F327
:10189000088802F09FF910BD01CA01C3EAE702C33C
:1018A000EDE702C3F0E7C04628900510B80C002011
:1018B000800E0020C0000020BC030020BC030020DC
:1018C000B80C0020006000200A4A0300116810B51F
:1018D000002901D10849116010680849C3188B42DA
:1018E00006D905F077F90C2303600120404210BDB2
:1018F0001360FCE728080020BC240020BC26002040
:10190000C020F0B5FF27C021C0244B4B80001A58DF
:101910004A4EBA430A431A501A582402324022430C
:10192000C0241A501A58464D24042A4022431A5003
:101930001A581202120A1100C0221206114319503D
:10194000C121890058580002000A10435850C22093
:10195000C02280001958B9431143C02219501958A8
:10196000120231401143C022195019581206294061
:101970002143195019580902090A1143C02219506C
:1019800004301958B9431143C02219501958120292
:1019900031401143C02219501958120629402143E1
:1019A00019501958C0240902090A1143C0221950BC
:1019B000043019582402B9431143C0221950195850
:1019C000120631402143195019582940195019580D
:1019D0000902090A1143C022195004301958B943A9
:1019E0000A43C0211A501C58090234400C43C0213C
:1019F0001C501C5809042C400A000C4380211C5028
:101A00001C58C9052402240A0C43C0211C50043070
:101A10001C580902BC431C501C5826403143195025
:101A200019580D401543C0221D50195812060902BD
:101A3000090A0A431A50F0BD00E100E0FF00FFFF71
:101A4000FFFF00FF024B18688003C00F7047C046BD
:101A500000004048024B18688006C00F7047C0461F
:101A600000004048024B18684004C00F7047C04651
:101A700000004048E021034A93688B43034393608E
:101A80007047C04600004048024B58694007C00FED
:101A90007047C0460000504870B50D00094C002A40
:101AA0000BD0FA218900FEF7CDFB00230138454316
:101AB0006560A3600533236070BD012223689343F2
:101AC000F9E7C04610E000E0024B1868C003C00F01
:101AD0007047C04610E000E070B50E00FA210F4BD1
:101AE0000400890018681500FEF7ACFB0138444378
:101AF0000B4B00225C601C009A6005321A60B047F4
:101B0000A84205D10120012223689343236070BDC0
:101B1000FFF7DAFF0028F2D00020F4E7040D0020E0
:101B200010E000E0F0B585B0002815D02020FFF7C8
:101B3000A1FF0421704B1A6E8A431A660122196CA8
:101B400011431964196C91431964196E1143196694
:101B50001B6E1A400392039B684B1A68684B9A42AB
:101B600000D0C1E00F220726664B1D68196818686F
:101B70002D0A090B000C1C681140154010401A6812
:101B8000240D120E0191344032409E270F265E4BE9
:101B9000BF00D959D200B1430843D8519D20F0214C
:101BA00080001F588F430199090139431950195872
:101BB000B1430D431D5092250720AD005959814373
:101BC0000C435C515959313081430A43B0215A5179
:101BD0003F220A2489005D5895432C4340255C50E0
:101BE0005C582C435C50042404315E5896433443C3
:101BF0005C5080245E5834435C505C58AC435C506D
:101C0000BA24BB25A4001959AD00914319511021E4
:101C10005C59944321435951202104355C59944324
:101C200021435951302104355C5994432143BE244A
:101C30005951A400195991430843392118510434CA
:101C400018599043014319513A21043418599043CB
:101C5000014319513B210434185990430143195150
:101C60003C210434185990430143C320195180008A
:101C7000195855249143023A0A431A50FF22234926
:101C8000C86C90432043C86466208D6D95432843FB
:101C90008865C425C86E6D00904304431D20CC6642
:101CA0005C599443204358515920043D5C59944356
:101CB00020435851322008355C59944320435851F1
:101CC00001200C6F2043D02408671F21A40018595D
:101CD00090430143D1201951800019589143F63A9D
:101CE0000A431A5005B0F0BD032208200723140050
:101CF0000500019349E7C04600004048F81E001067
:101D0000CCECBCFCE81E001000140060FC14006069
:101D1000802337B53F4C5B022268050013436420E3
:101D200001223D492360FFF7D7FE002800D16FE074
:101D3000002D44D0681E062840D8384DFEF76EFAB4
:101D40000420252A2F3439003022354900204B68E1
:101D500093431A00102313434B60FFF78BFE314B64
:101D60002B60802322689B01134323600122C8203B
:101D70002D49FFF7B1FE0523002843D118003EBDD1
:101D80002020FFF777FE294BEAE74020FFF772FE9D
:101D9000274BE5E76020FFF76DFE264BE0E780204C
:101DA000FFF768FE244BDBE7A020FFF763FE234B21
:101DB000D6E7C020FFF75EFE214BD1E7FEE72020EB
:101DC000FFF758FE80239B0222681A42FCD00223B0
:101DD000A2681343A36000230193019B052B0DDD33
:101DE0000423A2681343A360104A0C4B1A603021ED
:101DF0000B4A53688B4353600023BFE7C046019BE7
:101E00000133E9E7074A296800239142B6D0EEE79B
:101E10000423B3E700004048451A0410040D0020D5
:101E2000001000400090D003651A04100048E8013B
:101E30000024F40000127A0000093D0080841E0096
:101E400040420F0003000020FF2B0DD00A1F01307D
:101E5000032A09D9032908D1002B05D00421064AF9
:101E6000136E0B43002013667047012BF6D004213C
:101E7000014A136E8B43F5E700004048F7B5202672
:101E80006C4B6D4A0090019193606C4A6C4C1361ED
:101E900063686C4D33436360636801222B40636069
:101EA000C8206949FFF718FEAC4603352300FF350B
:101EB000002800D1B5E03021E2698A438021164331
:101EC000E661624C4901A2680A43A260604A116857
:101ED000604A914200D0A6E05F490E3508680F685D
:101EE0000A6809687F06120B890228407F0F2A4082
:101EF000890EE668594D090635400D438021E5609D
:101F0000E568090429431E25E160E1685200A94300
:101F100011430122E160E16880010A43E260504A16
:101F200050491568FF0229400143116020211068C3
:101F300080250143116011684B486D0001400F433B
:101F4000802117601068C900014311606146DA6999
:101F5000F0200A4080211543DD61C9050A6809683F
:101F60000240E13801400A43102A02D1DA69824373
:101F7000DA61996A3D48102601409962DA6A3C4F5D
:101F80000240DA62A3683B4A96201A4080231B0273
:101F900013436022A360E36839001343E3602368BE
:101FA0005C3A9343236023680022B34323604000DC
:101FB000FFF792FD454245419620236801221E43CA
:101FC0003900266040006D00FFF786FD00282FD005
:101FD000002D26D1019BFF2B02D00120FFF7A2FD8F
:101FE000254B26491A6800981140802292010A4325
:101FF0001A60802219680A4370211A601A688A439D
:10200000110030220A431A60FFF782FE051E08D134
:1020100000990198FFF716FF051E02D1FFF770FC2B
:1020200062B62800FEBD1F21082203270A2060E7B0
:102030000225F6E70000041000ED00E00400002097
:1020400000005048FFFEFFFF891A041000004048BE
:10205000F81E0010CCECBCFCE41E0010FFFFFFC01B
:10206000940050483FFCFFFFFFC7FFFFFFCFFFFF7B
:10207000551A0410FF7FFEFF98004048FFC0FFFF85
:10208000034B1B6D0340181A434258417047C0462A
:1020900000004048034B5B6D0340181A434258410F
:1020A0007047C04600004048034B9B6D0340181A20
:1020B000434258417047C046000040480D4B8022C3
:1020C000190082B0920218681042FCD0022298686F
:1020D00002439A6000230193019B052B05DD042335
:1020E0008A6813438B6002B07047C046019B01337E
:1020F000F1E7C046000040480421074B9A688A4334
:102100009A608022D20019681142FCD002219A689C
:102110008A439A607047C04600004048054B02223F
:10212000996808001040114202D098684007C00F1B
:102130007047C04600004048044B82B29968000CCA
:102140000A439A601A6B10431863704700005048A6
:102150000120054A82B0116E01431166136E0340DF
:102160000193019B02B0704700004048F0B5E24C7B
:10217000A544029001920C00A0220021DCA804F0EA
:1021800059FD0C22002119A804F054FD0C22002155
:102190001CA804F04FFD182200211FA804F04AFDDE
:1021A0002C2200213EA804F045FD2C22002149A844
:1021B00004F040FD6422002191A804F03BFD64225C
:1021C0000021AAA804F036FD64220021C3A804F06F
:1021D00031FD402200216BA804F02CFD24220021B7
:1021E00035A804F027FD582200217BA804F022FD29
:1021F000302200215FA804F01DFD2C22002154A8EC
:1022000004F018FD0120FFF73BFF00280AD09121C0
:102210002022C90525A8FDF7A9FFA022B749DCA8FF
:10222000FDF7A4FF8020C002FFF72AFF002804D09A
:102230000C22B34919A8FDF799FF80204002FFF74F
:102240001FFF002802D0AF4B1B681C938020400169
:10225000FFF716FF002804D01822AB491FA8FDF78E
:1022600085FF0420FFF70CFF002805D090212C22C9
:10227000C9053EA8FDF77AFF0820FFF701FF0028F7
:1022800004D02C22A14949A8FDF770FF802040000E
:10229000FFF700FF002805D080214022C9056BA868
:1022A000FDF764FF0120FFF7F5FE002804D064224B
:1022B0009749C3A8FDF75AFF0220FFF7EBFE00285D
:1022C00004D06422934991A8FDF750FF0420FFF742
:1022D000E1FE002804D064228F49AAA8FDF746FF3A
:1022E0008020C001FFF7E0FE002804D024228B49A3
:1022F00035A8FDF73BFF1020FFF7D6FE002804D0DD
:10230000582287497BA8FDF731FF8020C000FFF7E6
:10231000CBFE002804D0302282495FA8FDF726FFBB
:1023200080208003FFF7C0FE002805D082212C22E8
:10233000C90554A8FDF71AFF7B4D7C49AB687C4A60
:102340000C934B680D93136817910E930023099219
:102350002DA91A000998C032920080589A000133C2
:102360005050082BF5D1734B734E1B680F93734B72
:102370001A685B6810921193336B1293B36B1393CB
:10238000336D1493B36D326E1593D30700D491E27D
:1023900095236B4A9B00D25802231A401692694F2C
:1023A000BA6A930000D588E28023BA6A1B061343F9
:1023B0000122BB62336E134202D1336E9343336604
:1023C000029B032B0AD11022336806933368134211
:1023D00000D076E233680C3A934333605A4B1B6863
:1023E0000393503B0593594B1A000893059B1968BA
:1023F0000B9302C2039904339942F8D1544A554BC6
:1024000019601369916B9BB209040B430199214335
:10241000080014000022184004900192194200D0D4
:10242000D5E2802362685B00134363602368236006
:1024300004232A6913432B61FFF770FE049B079363
:1024400000280FD0FFF758FEE022B36893431A002C
:1024500020231343B360802332689B01134333600E
:102460000123079300230193029B032B16D1AF2175
:10247000394B012218684900FFF70EFB069BDB066B
:1024800000D433E220223368134200D027E2002335
:102490000022110010000193FFF7FEFA8020C00116
:1024A000FFF7F8FD00230A93984209D02B4B1B78C5
:1024B000002B05D1736D2A4A1340736501230A93DB
:1024C000FDF720FE04232A699A432A61029A032A0F
:1024D0004CD1069A1A4202D032681343336010235B
:1024E000069A1A4242D0A16A1E480140A162E26ADD
:1024F0000240E262326837E0ECFBFFFF0000704808
:1025000000006048000030480000204800001048EB
:10251000002000400050004000600040007000417A
:10252000006000410040004100ED00E0001000406C
:1025300000E100E020ED00E00000404810E000E095
:10254000001400600018006000000410440C00201B
:1025500000005048400C0020040D0020080D002011
:10256000FFBFFFFFFFCFFFFF134333600A9B002B2A
:1025700008D08021726DC9010A437265736D0B40EA
:102580001893189BDF4B9B68002B00D1F9E1089949
:10259000059B04C90891190004C10B9A0591934247
:1025A000F5D1039AD84B2DA81A600C9B0D9AAB60FD
:1025B000179B5A60099B0E9A1A6000239A001158C3
:1025C0001A00099DC03292000133A950082BF5D1A1
:1025D000129B01203363139BB363149B3365159BDC
:1025E000B365FFF74DFD002815D09120202225A9C5
:1025F000C005FDF7BBFD0023FFAA0432DD93C348ED
:10260000E293DCA9E793EC93F193F693FB931360C9
:10261000A022FDF7ABFD8020C002FFF731FD0028AE
:1026200004D00C22BA4819A9FDF7A0FD8020400271
:10263000FFF726FD002805D0D022B64B52039A6042
:102640001C9A1A6080204001FFF71AFD002804D070
:102650001822B1481FA9FDF789FD0420FFF710FDDE
:1026600000280BD09020469BC0050362479B2C227C
:102670004362439B3EA94361FDF778FD0820FFF7C5
:10268000FFFC00280AD0519BA4482C220362529BD5
:1026900049A943624E9B4361FDF768FD8020636852
:1026A0009F4A400013406360FFF7F4FC002805D008
:1026B000802040226BA9C005FDF758FD0120FFF7DF
:1026C000E9FC00280BD00122C39D964CC39B20003F
:1026D0009343C3A96332C393FDF748FD25600220ED
:1026E000FFF7D8FC00280BD00122919D8E4C919BC6
:1026F0002000934391A963329193FDF737FD256044
:102700000420FFF7C7FC00280BD00122AA9D874CAC
:10271000AA9B20009343AAA96332AA93FDF726FD42
:1027200025608020C001FFF7BFFC002810D04022A8
:10273000359D7F4C359B2000934335A9343A359322
:10274000FDF714FD14227B4839A9FDF70FFD256024
:102750001020FFF7A9FC002804D0582276487BA956
:10276000FDF704FD8020C000FFF79EFC00280DD07F
:1027700001225F9D714C5F9B200093435FA9233230
:102780005F93FDF7F3FC6A9BE36225608020800382
:10279000FFF78AFC00280CD082240122549D549B10
:1027A000E405934320001F3254A95493FDF7DEFC47
:1027B00025600124336E234200D0CFE0FFF7C8FC30
:1027C000BB6AA340E340BB62336EA3433366AF21D1
:1027D0005B4B0122802518684900FFF75DF9AD02C7
:1027E000584C23682B4205D1FFF76EF90028F7D02B
:1027F00004230193002211001000FFF74DF9079BFD
:10280000002B00D0B6E04E4B0122C821802518686D
:10281000FFF742F9ED0123682B4205D1FFF754F988
:102820000028F8D005230193002211001000FFF7C3
:1028300033F90F9A444B1A60119A444B5A600022A4
:102840009A60109A1A60029B032B00D0BFE0AF2160
:102850003B4C012220684900FFF71EF904223C4B43
:10286000039222689A4201D0012303933368DB0666
:1028700000D494E0202733681D003D403B4200D047
:10288000A0E0FFF721F90028F5D02A002900280050
:10289000FFF702F96B46039A1B7C934200D39AE040
:1028A000AF21012220684900FFF7F6F8049B0133AD
:1028B0000493E0E7FFF74CFC71E5BB6A5B005B0843
:1028C00076E53368234993433360234B9A6A0A4081
:1028D0009A62C022D96A92010A43DA627EE5FFF762
:1028E000F3F8002800D1CDE50223D1E508223368B2
:1028F000134200D1CBE5FFF7E7F80028F6D0029BA2
:10290000C6E5C04604000020400C002000007048CE
:1029100000006048000030480000204800001048D7
:10292000FFFEFFFF0020004000500040006000401C
:102930000070004110700041006000410040004103
:10294000040D00200000404820ED00E010E000E011
:102950000090D003FFCFFFFF00005048169B002BD4
:1029600000D134E7952202231C4992008858034382
:102970008B502CE7FFF7A2FB2368194A1340236012
:1029800057E7079B002B05D0FFF798FB3368144AE5
:10299000134033606368134A1340636053E70824AD
:1029A0003368234205D1FFF78FF80028F8D0029B47
:1029B0000193336EDB0705D5019B032B02D03B69E6
:1029C0000F2BFCD0002211001000FFF765F80198D2
:1029D000054B9D44F0BD02230193F3E70014006012
:1029E000FFDFFFFFFFFEFFFF140400007047000041
:1029F000F0B5040087B0080A0391C1B200251700A2
:102A00000492059302910093EFF3108672B67E4B09
:102A10009D6005F0EDFC0190A84200D183E020000C
:102A200001F04AF80500200000F0F4FB01902000BE
:102A300003F0F2FC019A2B1C954201D96B461B79DD
:102A4000DAB2A24200D9231C021CD9B2C0B2884219
:102A500000D91A1C6D4C6E4BD5B22361A363002DB7
:102A600006D10C9B1A7086F31088280007B0F0BDC1
:102A7000012D06D130BF0C9B1D7086F310880025F8
:102A8000F3E703AB1B78002B03D080200002FFF795
:102A900053FB029B002B0DD05E4B9B689B0400D424
:102AA000ADE08020C001FFF747FB02235A4A1168BE
:102AB0000B431360022D03D1C0208001FFF73CFBC4
:102AC00000983843FFF738FB6A46E36812883900FC
:102AD0009343E360009A636B120C93436363E26871
:102AE000BBB21343E360626B3B0C13436363009A16
:102AF0002800FFF73BFB2369A26B9BB21204134330
:102B0000464A01901360A3681B0C1B04A360236B4F
:102B10001B0C1B042363029B002B04D002213E4AA2
:102B200013688B43136086F31088374B9B68002B28
:102B300063D03A4E3368002B52D0F02332681B0129
:102B40001103090F13400B43F021140A09020C4032
:102B5000D2B2144355D08022D205916922040C00D0
:102B6000144011424DD0002B42D001248022D205C6
:102B70009269110019401A4236D03268284B1A4225
:102B800007D08022274B1202DA67BFF34F8FBFF3C3
:102B90006F8F002C2ED001213268234B0F001A4278
:102BA00007D080221F4B5202DA67BFF34F8FBFF36B
:102BB0006F8F3068FFF71AFF002C07D03268184B70
:102BC0001A4203D08022194B12021A60002F07D03C
:102BD0003268154B1A4203D08022144B52021A60FD
:102BE0000C9B1D70019D40E7002CF9D00C00D2E732
:102BF0001C00D0E727000124DBE71D00F0E70125DA
:102C000033E7002BB2D1EBE704000020000050486E
:102C1000FFFF000000004048005000412C08002049
:102C2000000F0F0004E100E0FF00F00000E100E011
:102C30000023F7B50400019000910B70002C17D011
:102C4000237B002B1FD0EFF3108572B626686768D0
:102C500000F0B0FD361A8F413200002F02DC0ED199
:102C6000002E0CD00121100000F016FE85F3108814
:102C7000009B1B78002B00D0019C2000FEBD01238F
:102C8000009A1370F2E72469D8E70000F0B585B028
:102C900002A9CD1D0021012429700192067B21008B
:102CA000002E1BD10473194C0260A268436011000E
:102CB0000092002907D04A689A4212D303D10A68C9
:102CC000019FBA420DD30161002E0DD12900FFF7FB
:102CD000AFFF2B78A060002B0BD12978080005B03E
:102CE000F0BD0E000969E4E7009B30618342F4D136
:102CF000ECE7EFF3108172B6237D607D5A1C8242AF
:102D000000D0D3B2237581F31088E6E730080020A5
:102D100010B500F0E3FC0122014B1A7110BDC04652
:102D2000300800200023F0B52F4987B00A682F49EA
:102D300005900868496812184B4102920393EFF31B
:102D4000108472B600F036FDC82200239202009073
:102D500001910298039912184B41254D2E686F6816
:102D6000BB4212D801D1B2420FD802980399B922BE
:102D700000235200801859410B000199020099422A
:102D800003D823D10099914220D94C204042C11749
:102D90000A22801979410023029003910098019939
:102DA000801859410B0003990200994203D810D1B1
:102DB000029991420DD930002A7A297B00F08EFDCC
:102DC000059B187001236B72FF336B8184F31088AD
:102DD00007E00022064B9A7284F310880123059ABB
:102DE000137007B0F0BDC04630080020480800202E
:102DF00078080020F8B5002600F01AFD0F4B5E722F
:102E00005E81EFF3108772B61C685D6800F0D2FC3B
:102E1000241A8D4100F03AFD33000200A41A9D41AE
:102E200087F31088B54205DC06D1B44204D00220F5
:102E30000E2C00D90020F8BD0120FCE77808002006
:102E4000704700000A4B13B51A6B0A490A401A630F
:102E5000094A117D547D481CA04200D0C1B21175B1
:102E60000122D96C0A43DA64DB6C019313BDC046BE
:102E700000180060FFFFFFBF300800200022014B58
:102E8000DA727047780800207047000070B5FFF7CD
:102E9000FDFE064D04002B7B002B04D100F01EFC30
:102EA00001232B712B73E0B270BDC04630080020A7
:102EB000F8B50C00050000F07DFC0A2206000F00AA
:102EC0000023210D2003FDF78FFA02000B002800DC
:102ED00092197B41FFF7DAFE054D04002B7B002B96
:102EE00004D100F0FBFB01232B712B73E0B2F8BD82
:102EF00030080020F7B5140000226B461500DA7187
:102F00000E4B19730E491C720E684F68841BA4196E
:102F10007D411C605D6001255A725D816B46D81D44
:102F2000FFF700FF074C237B002B03D100F0D6FBFB
:102F3000257125736B46D879FEBDC0467808002000
:102F4000480800203008002037B5154C0200A3685F
:102F500000251900002905D008698A421DD1934235
:102F600001D02861180000216D461173E971834278
:102F700012D0E91DFFF75CFEEB79A060002B0BD0AF
:102F8000EFF3108172B6237D607D5A1C824200D01F
:102F9000D3B2237581F3108837BD0D000100D9E746
:102FA0003008002010B500F005FC10BDF7B5050095
:102FB00000F012FD8022274B52031A60AB7801A863
:102FC00083706B6800265A1E9341C3702B88038060
:102FD00000F012FB204800F00DFC01231F4C6A6832
:102FE00023731300591E8B4100200021A3751C4B35
:102FF000A6605E725E81186059602B8815030A21F5
:103000002800E6752361A682FDF71CF926710700EA
:1030100020601448092D02D800F0F8FC04E000F00C
:10302000F5FC874213D2206800260F4D0F4B6E61CE
:10303000AB60206000F0BEFB3300226812184B41E9
:103040002800FFF723FE206800F0E6FBF7BD0548E7
:10305000E2E7C04600E100E0480800203008002018
:1030600078080020FFEFFFFF60080020112D0410FA
:103070000023F0B589B006AAD371EFF3108672B6BB
:10308000594C637A002B0AD06568276800F092FBE0
:10309000A94202D803D1B84201D90023637286F352
:1030A0001088524D2B7D03936B7D0493049A039BF0
:1030B00093422AD12B79002B00D17BE000F020FB3A
:1030C000002820D1AB7D2871002B00D06CE0EA7D78
:1030D000002A00D168E0EB75002306AAD371424BA9
:1030E0009B7A002B02D0D01DFFF71CFE404C200025
:1030F000FFF72AFF00F05EFB00232A6812184B41FD
:103100002000FFF7C3FD09B0F0BDAB681C000193C0
:10311000002302930593002C13D0237B002B05D1B1
:10312000029B0594013324690293F4E726686768DB
:1031300000F040FB361A8F41002F02DCF0D1052E43
:10314000EED90020029B834203D0059B18610198B1
:103150000194264C019BA36000281CD106ABD91D0D
:10316000A868FFF765FD06ABDB79A860012B0BD1E2
:10317000EFF3108172B62B7D687D5A1C824200D01D
:10318000D3B2237581F310886B7D039AD318049A08
:103190009B1A6B7585E70023037383680669002B10
:1031A00000D098473000D7E700F0B2FA114800F09D
:1031B00021FB91E70F4C237C002BA4D0FA2600279B
:1031C000760300F0F7FA2268636892197B4199420E
:1031D00004D800D097E7904200D894E700F07EFA38
:1031E00001232B718FE7C0467808002030080020AB
:1031F0006008002048080020054B0020197D5A7DFA
:10320000914202D1187943425841C0B27047C0463A
:1032100030080020F0B585B00500FFF7EDFF041E73
:103220002BD003A800F012FB334B344A99681142AB
:1032300001D0012802D1DA7A002A21D01A685B680D
:103240000192009300F0B6FA0D00040000F01EFB9E
:103250002B4B00271E691E22002392197B41121955
:103260006B4104003D0012196B4100998B4203D859
:103270003ED101998A423BD90124200005B0F0BD1E
:103280000138C0B22C000128F6D91D4DAB68002BC7
:10329000F3D01A7B002AF0D01A685B680192009381
:1032A00000F088FA00270B00020000211E202E6982
:1032B0008019794180185941009B9942DCD802D18C
:1032C000019B9842D8D8032C14D10D4DA8680669EB
:1032D000002E0FD10B4B98420CD10123EB75FFF759
:1032E00033FE094A2E73136B08490B401363C4E77E
:1032F0000224CAE70224C0E77808002000FFFF008C
:10330000300800206008002000180060FFFFFFBFA9
:103310000F238908036189B2243381610264036049
:10332000323B02691A42FCD0704770B5FF290FD0BA
:103330000F2411250126D318934211D95106090CE7
:1033400004618161056001693142FCD00132F3E71B
:103350000F23036113330360213B02691A42FCD03F
:1033600070BD0000014B8000C15070470004304820
:10337000094B800030B5C0180C000023002C06DC7F
:10338000CB43DB171940002389000B5030BDD558C3
:10339000013CC5500433F1E700043048064B80007F
:1033A000C018002310B5002900DC10BDC458013935
:1033B000D4500433F7E7C04600043048014B800086
:1033C000C05870470004304830B514498B688A688B
:1033D0005B0352035B0B520B9A42F7D1002BF5D0E3
:1033E0000F4CDAB262431D126C43121212191032E2
:1033F000521142628361CB68CA685B0152015B096A
:1034000052099A42F7D1002BF5D0064A99114A4346
:10341000803212120262C36130BDC04600100060EB
:10342000F6BC0800530700000200DB23682053436A
:1034300050431B0C000AC0187047000010B5084A22
:10344000FCF73EFE102800DA102080235B01984232
:1034500000DB0448044B00119882044B986010BDB7
:1034600026030000FF0F00008808002000180060FD
:1034700010B5FFF7D9FF034B034A196AFCF720FE8A
:1034800010BDC046880800202603000070B5184E05
:10349000016A184A04001B20B57BFCF711FEC0B27C
:1034A0007071B079EDB2C0B2FFF7E2FF230049338B
:1034B0001870307AED1001354019FFF7D9FF23005D
:1034C00041331870707A4019FFF7D2FF230042335E
:1034D0001870B07AC0B2FFF7CBFF230043331870E7
:1034E000F07A4434C0B2FFF7C3FF207070BDC0460D
:1034F000C000002026030000F7B51B4B1B4C1D69C4
:10350000A66AA268E36800920193236B3100184A0F
:10351000E81AFCF7D5FD0023020000980199121863
:103520004B4122606360230040331F78002F12D18B
:10353000236B626BEB1A93420DD2012031000C4ACF
:103540004042FCF7BDFD3B00020020686168121894
:103550004B412260636022686368A260E360636A33
:10356000E5622563A362F7BD0018006088080020AB
:1035700035060000F8B5EFF3108772B6134B144E02
:103580001B69346875680360F26A716A981A114A97
:10359000FCF796FD00230200A4185D41F36BAB42DB
:1035A00003D80CD1B36BA34209D90120094A716A2F
:1035B0004042FCF785FD00230200A4185D41B4637E
:1035C000F56387F3108829002000F8BD001800601B
:1035D00088080020350600000122064B10B5196945
:1035E000114319610021996019691142FCD0FFF75C
:1035F000EBFE10BD00100060F8B50388304C314D73
:103600002361AE7B4388F60807000136002B4CD0BF
:1036100001222D4B19691142FCD017225968200054
:103620000A435A60FFF7D8FF636AA3622300FA785F
:1036300040331A702369216A98B2FFF7FFFE230016
:1036400000214A3300221970002320482260636061
:103650000069A263E363A260E3602300E0624B338E
:10366000206320001970FFF711FF287A8019FFF7F7
:10367000DBFE23001B3045331870687A8019FFF792
:10368000D3FE23001B3046331870A87AC0B2FFF770
:10369000CBFE23001B3047331870E87A4834C0B2A1
:1036A000FFF7C2FE1B302070F8BDC8235B03A36286
:1036B0006362074B2362074BA361074BE361B5E7E6
:1036C00088080020C0000020001000600018006082
:1036D000C2F528008D5B0000ECEB6501064B403322
:1036E0001B78002B06D00122044B19690A431A618A
:1036F00000229A607047C0468808002000100060D1
:103700000120024B1B6998437047C04600100060BF
:1037100030B5274C97B0230040331B78002B3ED0A8
:103720005022210002A803F069FA02A8FFF74CFE1C
:10373000069B0A9901936B469888FFF77FFE02A8C3
:10374000FFF7A4FEEFF3108572B6230001224B337E
:103750001A70089B4121A361099B02A8E3610A9B9F
:10376000091823620B9B019363620C9BA36213AB4A
:103770001A78230009784133197003A9C98F231DD2
:10378000D987230044331A7049231B181B78493406
:103790002370FFF7B1FE85F3108817B030BDEFF34B
:1037A000108472B6FFF7A8FE84F31088F5E7C046D0
:1037B0008808002007B501A8FFF7DCFE03B000BDB4
:1037C00073B5060001A8FFF7D5FE019B0400981B06
:1037D000064B0D00064A596AFCF772FC29000200EC
:1037E00000232000801A99417CBDC0468808002033
:1037F00035060000074B1A00403212780274DA696D
:10380000C2609968DA68016042609A691B6B8260E5
:10381000436170478808002010B5034C034A216AB1
:10382000FCF74EFC606310BD8808002026030000F2
:10383000C0230022DB05DA60024A0349936A0B4089
:103840009362704700180060FFFFFFBF0E4A10B57B
:10385000946A802103002000C90508400C4203D06F
:103860000320526A1A6010BDC022D205D168022915
:1038700003D1126901201A60F5E7D1680329F2D15A
:10388000126902201A60EEE700180060014B4A330B
:1038900018787047880800200D4B0E4A196A10B539
:1038A000FCF70EFC0C4B02001869202A00D22022E3
:1038B000010008315218DA628022996A92050A439F
:1038C0009A628022196BD2050A431A6310BDC04662
:1038D000880800202603000000180060F7B5304C6F
:1038E0000700230045331E782300012935D1002A23
:1038F00031D0413301A81D78FFF73CFE2369294AE6
:10390000C8339B19216A284E381A83422BD2FCF700
:10391000D7FB2649019A4B795B19C31A07209A18DD
:103920007262B26A8243B262C0220020D205D060C5
:10393000B06A0243B262487945195B196A1D934225
:1039400024D2C02300220120DB05DA60B36A184AC2
:103950001340B362FEBD4233CCE7002A01D04333AB
:10396000C8E74433C6E7FCF7ABFB2300C02149336B
:103970001B78019A5D19431BC9059A180A61022236
:10398000CA60B26A0A490A40B262D6E7616A280090
:10399000084AFCF795FB4A3420700020DAE7C0465D
:1039A000880800202603000000180060C0000020E6
:1039B000FFFFFFBF35060000EFF3108172B6C02293
:1039C000044BD2051B69023313610223D36081F3D8
:1039D00010887047001800600122064BD96C114313
:1039E000D964996C0A439A648022034B12041A60CA
:1039F0007047C0460018006000E100E0C02310B529
:103A0000DB055869FFF7DCFE10BD000010B5034B65
:103A1000034A596AFCF754FB10BDC04688080020D1
:103A20003506000030B58FB004AC22001B4B23CB11
:103A300023C223CB23C223CB23C2A0201B68C002F6
:103A40001360174A116D01431165136D0340019313
:103A5000019B00F039FCA0236A465B001381002320
:103A600002A893720393FFF7A1FA02F0A3FB02F0FE
:103A70003FFC431C00D1FEE703F056F8002800D0BD
:103A8000FEE700F083FB200004F08AFC011E03D057
:103A9000044803F0D7F8FEE70FB030BDF0840510FE
:103AA00000004048E085051010B5FFF7E1FA04F08A
:103AB000AFFC02F08BFA10BD10B5FDF709FC002831
:103AC00004D1FDF70DFC0323002800D000231800CB
:103AD00010BD0000032808D8BFF34F8F034B044AE2
:103AE000DA60BFF34F8FC046FDE7704700ED00E09E
:103AF0000400FA0510B5032806D8537810781B0285
:103B00001321184301F041F910BD000013B508203E
:103B10001C4A116D01431165136D1B490340802040
:103B20000193019B194B40051C680C402043186011
:103B30009A6817481140802292050A439A605A6891
:103B400002405A60134A916A01409162D16A014071
:103B50008020D1621968C00589008908014380204E
:103B600019609968000689008908014399605868BE
:103B7000094908405860936A0B409362D36A0B402E
:103B8000D36213BD00004048FFFFFFCF0000104884
:103B9000FFBFFFFF00005048FF7FFFFF8023DB01D6
:103BA000984202D1034B986103E080231B029842A4
:103BB000F8D07047000010488023DB01984202D102
:103BC000034B986203E080231B029842F8D07047B1
:103BD0000000104830B50021012087B0FEF74EF9F3
:103BE000041E00D0FEE7FDF7B7FC2B48FDF77CFA7A
:103BF0002000FDF707FD0120FDF704FD0220FDF781
:103C000001FDFFF783FF8022244BD2019A6120003F
:103C10009A61FDF74BFD0120FDF748FD0220FDF7FD
:103C200045FDFFF7FFFE00F063F9041E04D001001C
:103C30001B4803F007F8FEE703AD1A491A4803F0E2
:103C400001F8AC606C602C80FFF72EFF00F00AFAE0
:103C5000164C2168002914D0154802F0F3FF2068A3
:103C6000FFF79CFF0120FDF70FFD0120FDF71EFD72
:103C70002068FFF7A1FF21680E4802F0E3FF002350
:103C800023600B236B44009329686A68AB680320A8
:103C9000FEF7AEFED8E7C0469912041000001048A7
:103CA00003860510248605102A860510DC080020EE
:103CB000648605106E86051010B50A4801F06DF88F
:103CC000041E05D0084803F049F88624200010BDE2
:103CD000064801F06EF8064B01001880054802F016
:103CE000B1FFF3E70087051079860510DC86051023
:103CF000940C0020988605100E4B10B51B881400FC
:103D0000013398420CD11378002B0AD0012B0DD02F
:103D1000094803F023F82278084B1A7062785A7029
:103D200010BD8022064BD2011A60F1E78022044BBD
:103D30001202F9E7940C0020CA860510D80800206A
:103D4000DC08002037B50D000400D9B21000069A37
:103D5000FFF7D2FF012D06D1002120000B000A0041
:103D6000009101F02AF837BD064B07B51B880133D7
:103D7000994205D1044B00220093022301F01DF863
:103D800007BDC046940C0020D80800200122014B3A
:103D90001A7070472009002010B5034B13211888B2
:103DA00080B200F0F2FF10BDE80800200123094AAC
:103DB00010B511680B4313600022074B1880074BA6
:103DC00007481A70FFF7C0F806490748FFF770F870
:103DD00010BDC046200D0020E8080020200900206A
:103DE0000809002060EA0000F008002037B50E4BFB
:103DF0000E4C23600E4B6360FDF7B4FA01212000E6
:103E0000FDF7D2FC6B46DD1D29002000FDF7E6FC26
:103E10002B78002BF6D101212000FDF76DFC11213C
:103E20002000FDF783FC37BD49140410980C0020D6
:103E3000A114041073B5284D01236A4627212800D8
:103E4000FDF746FC6B461B789B073FD501AC210074
:103E50002800FDF7A2FC0023E05EFDF743FC041CF4
:103E6000FDF796F80A221D4D1D4B297800B25143EB
:103E70005B181872001203215872002004F055F8E4
:103E8000011E02D0174802F0DDFE2B780133DBB2B1
:103E9000022B1CD02B70201CFDF77AF80500FDF7D3
:103EA00097F80021061C201CFCF78AFA002810D085
:103EB000311C201CFCF7A4FE0B49FCF787FDFDF725
:103EC00067F829000200094802F0BCFE73BD002318
:103ED000E0E7211C301CEDE7980C0020E6080020EC
:103EE000090D002028870510000020415887051083
:103EF00010B592B006223A4910A802F07FFE394B65
:103F00000F93FFF773FF0621002010AA04F03AF97F
:103F1000041E06D00100344802F094FE200012B0C6
:103F200010BD182104F02AF900F033FF041E02D05E
:103F300001002E48F0E73A236B4402930EAB019345
:103F400036236B440100009307220300012003F095
:103F500065FF041E02D001002548DDE704210FAAF9
:103F600002F09AFDFFF7A8FE041E02D001002148CE
:103F7000D2E70122C8230892DB00069206320093A2
:103F8000022101920A900C3209900790059004904A
:103F90000390029003F0A2FF0100174802F052FEC6
:103FA00006212000154A03F0C8FF011E02D0144864
:103FB00002F048FE0A22134B00201978124B51439D
:103FC0005B18032103F0B1FF011E02D00F4802F07D
:103FD00039FE0F4B0F4A9A600F4B104A9A609DE7CB
:103FE000188505104E6F64657A870510A787051040
:103FF000CC870510EC8705100E880510240D0020D5
:1040000030880510E6080020090D002028870510DB
:10401000080900208D3D0410F0080020993D04108F
:1040200010B5FFF707FF002301210A4A08001370AB
:104030005380137103F07DFF011E06D0064802F085
:1040400001FE064802F08AFE10BD054802F086FE19
:10405000F7E7C046E008002062880510C488051014
:104060009688051070B502260C4D0D4C2B68334216
:1040700006D001232370FFF7D3FF2B68B3432B60D7
:104080002378002B08D0FA210023890005482370EB
:10409000FEF70EFFFFF7CEFE70BDC046200D0020DC
:1040A000200900200809002010B5002802D10800CE
:1040B000FFF77CFE10BD10B5002802D10800FFF705
:1040C00075FE10BD0121064B10B51A6805488A43DC
:1040D0001A60022219680A431A60FEF735FF10BD04
:1040E000200D0020F00800207047000010B50348A4
:1040F000002900D1024802F031FE10BDD888051019
:10410000FA88051010B5EFF30880024900F0C0FEF0
:10411000FEE7C0460100ECBC10B5EFF30880024991
:1041200000F0B6FEFEE7C0460200ECBC70477047E8
:1041300010B5FDF79DF810BD7047704710B5FEF73C
:104140007FFE10BD10B5FEF77DFE10BDC02301221D
:10415000DB05596F82B00A435A675B6F019302B067
:10416000704770B5C024E405E56966686660FEF7CF
:1041700085FE280030430CF0E5FBFEF785FE636802
:1041800070BD10B500F02CFF10BD000001220A4BDD
:1041900082B0196E11420CD1196C11431964196C5B
:1041A00091431964196E114319661B6E1A400192EE
:1041B000019B002002B0704700004048F7B501267F
:1041C000C0246D46B446E4050735194E6746337082
:1041D0000E68A6624E68E6628E682663CE686663E5
:1041E0000668A6634668E66386682664C6686664F1
:1041F00064262E70A66D3E43A66567462E78013E66
:10420000F6B22E70E66D3E4202D02E78002EF4D12A
:104210002E78A66C1660E66C5660266D9660666D0C
:10422000D660034E36789E42CFD10020FEBDC046F8
:104230002109002030B50824012906D0023C0029BC
:1042400003D00024022900D106344D1E012D06D8CA
:104250009B23012A00D05E3B001BC01A30BD002901
:1042600001D00329F8D19923F3E70000C022D20539
:10427000536803490B4003490840034353607047A8
:104280004F000200B0FFFDFFC0220821D205936954
:104290000B439361704700008021024A53688B43AF
:1042A00053607047C00000208023024A51680B43CE
:1042B00053607047C00000200268024B19681A6002
:1042C0007047C046C00000208022F8B5694C1A260D
:1042D00063681B279343636080236168664ADB0140
:1042E00011400B436360FC23606864499B030840F2
:1042F000034390206360636800051B021B0A0343AD
:104300006360B423A068DB0308400343C820A360B4
:10431000A36880051B021B0A0343FF20A3605A23E6
:10432000A56885432B43A360C823A5689B0115405E
:104330002B43A360E36801250B4080214903194307
:10434000E160E3684E49194080235B050B4304217B
:10435000E360236983430B432361E36883431800CD
:1043600014230343E360E3681340A022D2001A43FE
:10437000E260636919438023616162691B0413432E
:104380007F226361A3699343A3613E483E4BFA32A7
:1043900003823E4BFF329A58C57482745D220275C7
:1043A0009D2292009A584275394AC2829222920006
:1043B0009A5845760276122282761A00FC32D16C27
:1043C000C17634498183916DC57781774119CE7764
:1043D000D66E811CCE7730494184C42149005E5895
:1043E000411DCE772126811DCD77C11DCE77C221FB
:1043F00049005E5801000831CE7728490185C62161
:1044000049005E5801002A310E70010006002B3170
:104410002C360D703770166F02002D321670204A40
:104420000600C285D02292009F58303637700600B1
:10443000313635700600912732363770D126B600F6
:104440009E59030033331E70060000230100020052
:104450003436337010320C31026042608160C360C8
:10446000FFF72AFF0F4B1D6080236269DB051343B2
:104470006361F8BDC0000020FF00FFFFFFFF00FFE9
:10448000FFFFFFC024090020015E0000001400604F
:10449000015200000115000001220000012300006C
:1044A0000190FFFF101400607F21034A0840536809
:1044B0008B43034353607047C0000020014B1840FA
:1044C0007047C04630DFC9008023DB0318407047C7
:1044D000002070478023DB051840704780239B0431
:1044E0001840704780239B01184070478023DB02EF
:1044F0001840704780235B021840704780239B035D
:104500001840704780239B001840704780231B0190
:1045100018407047C00FC00770478023DB04184065
:10452000704740231840704780235B041840704751
:104530000822436893434360704780224368934353
:10454000436070470122436893434360704780682B
:10455000704710B51022002100F0B2FD10BD2022DE
:10456000436813434360704710224368134343601A
:104570007047082243681343436070478368816033
:104580007047802342681343436070478023C268AA
:10459000DB051343C36070478023C2689B04134349
:1045A000C36070478023C2681B061343C360704713
:1045B0008023C268DB041343C36070478022C36852
:1045C00052041343C360704704224368134343609B
:1045D00070470368016070474368024A13404360B4
:1045E0007047C046FFFEFFFF7047802243685200BD
:1045F000134343607047402342681343436070474E
:10460000012243681343436070478022436892004D
:10461000134343607047C36809031B0D090B1B0557
:104620000B43C36070478023C2685B031343C360BE
:1046300070478022C36812041343C360704780220E
:10464000C368D2031343C360704780224368D2001B
:1046500013438022436043689200134343607047D2
:10466000044A0548090213690140044803401943FC
:1046700011617047C000002000FFFF0FFF0000F035
:104680005C235843054B064AC01803681340036077
:10469000036A044A134003627047C046DC000020EE
:1046A000FFFFDFFFFFFFFFDF5C235843064BC0180F
:1046B000802302689B03134303608023026A9B05E7
:1046C000134303627047C046DC0000205C23434371
:1046D000014A9B18586A7047DC0000205C2358434D
:1046E000094BC018C36A1B0C0B70C36A1B0E4B70BE
:1046F000036B8B70036B9B029B0CCB70036B9B0259
:104700009B0E0B717047C046DC0000205C235843B1
:10471000014BC0187047C046140100205C23584369
:10472000014BC0187047C0461C0100205C23434366
:10473000024A9B18D86A8004800E7047DC00002073
:104740005C234343024A9B1818680006C00F704759
:10475000DC0000205C234343024A9B181868800455
:10476000800E7047DC0000205C235843064BC018C5
:10477000C269120A0A60036A1B0613430B60036ACC
:104780001B0ADBB24B607047DC0000205C23434314
:10479000024A9B1818684000400F7047DC00002058
:1047A0005C234343024A9B1818684001400F70473E
:1047B000DC0000205C225043054B10B5C4180021DA
:1047C000200000F07DFC402322681343236010BDCD
:1047D000DC0000205C235843024BC018436A41624E
:1047E0007047C046DC0000205C2310B558430D4BD9
:1047F0000C78C0184B78C26A1B02234392B21B0488
:104800001343C362CB780C791B0289782404026BB2
:1048100023430B439B02920D92059B0A13430363B0
:1048200010BDC046DC0000205C225043044B09024E
:10483000C018836A090A1B0E1B060B43836270476C
:10484000DC0000205C225043044B0906C018836A38
:104850001B021B0A0B4383627047C046DC0000202A
:104860005C23FC225843054B9201C0180902C36A1D
:104870001140034A13401943C1627047DC00002015
:10488000FFC0FFFF5C23FC225843054B9201C01878
:10489000090203681140034A13401943016070473D
:1048A000DC000020FFC0FFFF5C235843094BC01809
:1048B000C2690B68D2B21B021343C3614B6809681B
:1048C000026A090E1B020B43120C12049BB2134323
:1048D00003627047DC0000205C235843064BC0187D
:1048E000026A036A92B21B0C1B0413438022120259
:1048F000134303627047C046DC0000205C23802223
:104900005843034BC0180368934303607047C04685
:10491000DC0000205C235843024BC0188368816090
:104920007047C046DC0000205C23E0225843054B62
:10493000D205C018090703681140034A1340194300
:1049400001607047DC000020FFFFFF8F5C235843AD
:10495000064BC01883690B6883614B68FF21C269ED
:104960000B408A431343C3617047C046DC000020FC
:104970005C23FF215843054BC018C269C3690A4034
:104980008B43134380221343C3617047DC00002034
:104990005C235843034BC018802302681343036011
:1049A0007047C046DC0000205C235843024BC0180F
:1049B000436841607047C046DC0000205C23E02271
:1049C0005843054BD204C018090603681140034A36
:1049D0001340194301607047DC000020FFFFFFF81F
:1049E0005C231F225843044B1140C018C36A9343F1
:1049F0000B43C3627047C046DC0000205C233F22AB
:104A00005843044B1140C018036893430B430360A1
:104A10007047C046DC0000205C235843034BC0189D
:104A2000802302681B02534003607047DC000020B3
:104A30009D23042800D08B3B1800704710B504F06C
:104A400064FA10BD10B504F0F5FD10BD10B504F00A
:104A50008BFE10BD10B505F089F810BD10B503F040
:104A60005DFC10BD10B503F03BFC10BD10B507F0A8
:104A7000DFFD10BD10B507F0D1FD10BD10B507F07A
:104A8000DFFE10BD10B507F023FF10BD10B508F014
:104A9000BFF810BD10B504F067F910BD10B504F0F3
:104AA00079F910BD10B504F084F910BD10B504F00B
:104AB00093F910BD10B504F0B1F910BD10B504F0B4
:104AC000E2F910BD10B504F0E6F910BD10B504F020
:104AD000CCF910BD10B504F0A9FB10BD10B504F061
:104AE000A0FB10BD10B504F058FB10BD10B504F0CC
:104AF00072FB10BD10B504F08CFB10BD10B504F0B6
:104B000042FB10BD10B504F034FB10BD10B504F02D
:104B1000C8FB10BD10B504F093FB10BD10B504F038
:104B200094FB10BD10B504F098FB10BD10B504F057
:104B3000EEFA10BD10B504F01AFA10BD10B504F06D
:104B4000F9F910BD10B504F08AFA10BD10B504F0E3
:104B5000C1FA10BD10B504F047FA10BD10B504F04D
:104B60009CFA10BD10B504F05CFA10BD10B504F04D
:104B70001CFA10BD10B504F0D7F910BD10B504F043
:104B8000D4FA10BD10B504F0C9FA10BD10B504F088
:104B90009BFB10BD10B504F0A0FB10BD10B504F0D8
:104BA000A5FB10BD10B504F0B2FB10BD10B504F0AC
:104BB000F5FB10BD10B504F0FFFB10BD10B504F0FF
:104BC000E6FB10BD10B504F0C7FB10BD10B504F036
:104BD00013FC10BD10B504F002FC10BD10B504F0BC
:104BE0006EFB10BD10B504F064FB10BD10B504F0F1
:104BF000A4FB10BD10B504F0E6FB10BD10B504F029
:104C00007FFB10BD10B504F004FC10BD10B504F01E
:104C100028FC10BD10B504F02EFC10BD10B504F03A
:104C200012FC10BD10B504F002FC10BD10B504F06C
:104C300057FC10BD10B504F05CFC10BD10B504F0BD
:104C40005EFC10BD10B504F036FC10BD10B504F0CC
:104C50003FFC10BD10B504F033FC10BD10B50EF0D4
:104C6000B5FD10BD10B508F087F910BD10B50DF0F9
:104C700037FA10BD10B50EF071FA10BD10B509F07D
:104C80002DFB10BD10B50AF0A9F910BD10B50AF042
:104C900023FD10BD10B50AF065FF10BDF0B589B059
:104CA00007930EAC0FAD10AE11AF12AB24782D7878
:104CB00036783F781B78039704930296079B0195FB
:104CC00000940CF0A1FB09B0F0BD10B50EF020FF70
:104CD00010BD10B50EF0C8FE10BD10B50FF06AFE85
:104CE00010BD10B50FF0FEFD10BD10B50FF014FE95
:104CF00010BD10B50FF06EFD10BD10B50FF094FD96
:104D000010BD10B50FF068FB10BD10B50FF060FAC4
:104D100010BD10B50EF0F8FE10BD10B510F0A2FCDD
:104D200010BD10B511F0D0F910BD10B511F0B0F9EB
:104D300010BD10B511F092FB10BD10B511F0CEFBF7
:104D400010BD10B511F0DBFB10BD10B511F016FC55
:104D500010BD10B511F0D6FB10BD10B505F0CEF9A1
:104D600010BD10B505F090FA10BD10B505F09AFA17
:104D700010BD10B505F0AEFE10BD10B506F01AFD61
:104D800010BD10B507F0AAF810BD10B503F080F8FB
:104D900010BD10B503F0E5F810BD10B503F0D5F85F
:104DA00010BD10B503F0D9F810BD10B503F0C9F867
:104DB00010BD10B503F0CDF810BD13B5049C0094E0
:104DC00003F0D3F816BD70B58CB06B4615000C001F
:104DD0001900103516780132DE73013BAA42F9D171
:104DE000C36808AA0493836805934368069303681D
:104DF00004A807930023FFF7E1F9210008AB0C3169
:104E0000DA7898781206000402431878024358783A
:104E10000433000202430A600A0004399442EFD1CD
:104E20000CB070BDFF2303708023DB055A68154961
:104E300082B08A421DD1032202700F211A68120922
:104E40000A4042701A680A4082705B6843600E4BE9
:104E50001B689BB201339B00836000230093009A80
:104E60009A420BD00193019B01339B03C36002B0B4
:104E7000704706498A42E0D10522DDE7C023DB0105
:104E8000F4E7C04641E001021410004041800202F4
:104E90000022144B70B51A605A609A60DA601A6189
:104EA0005A619A61DA611A625A62E022C0241206DB
:104EB00080255860801802221960E401AD05A042E7
:104EC00003D24659910059180E60013204300A2A63
:104ED000F5D1BFF34F8F044B044ADA60BFF34F8F15
:104EE000C046FDE73400002000ED00E00400FA05B4
:104EF00037B535490B78002842D0002B1ED101224E
:104F000080250A7031496D004C6D2C434C654B6D0A
:104F10002B400193019B8023DB05196B114319631F
:104F2000596B91435963D96A9143D962996B114383
:104F30009963DA638022264B92041A608022254B03
:104F40009200D96911421AD1D969490517D4DC698F
:104F500021490C402243DA6104225C691442FCD1ED
:104F60000F2400281ED00E22D869A0430243DA6124
:104F7000DA6911400422D96159691142FCD037BD68
:104F8000012BDBD1802280240870D205916BA40410
:104F9000994391631149CC67BFF34F8FBFF36F8F74
:104FA000D363CBE7D869F025A04302438020DA61C0
:104FB000C005026800682A4020400243102AD7D169
:104FC000DA69A243D3E7C0465C09002000004048EC
:104FD00000E100E000005048FFFDFFFF04E100E0B9
:104FE0000E4B1B78002B13D08023DB05DB6BDB071C
:104FF0000ED5A6220A4B920098580221443AC006C8
:1050000007D598580143995080230122DB05DA63C4
:105010007047985888439850F6E7C0465C090020CE
:10502000001400607FB5060068460D001400FFF70D
:10503000F9FE6B461B7833706B465B782B706B46C2
:105040009B7823707FBD10B5FFF752FF10BD0000A5
:10505000A92313B5094A9B00D3580093AA239B00A8
:10506000D3580193009C019BE4B21B061B0C234305
:105070000360AB239B00D3580B6013BD001400608A
:1050800007B5684601A9FFF7E3FF009A7F20002AD1
:105090000ED001990B290BD806234B43763B1E2AD1
:1050A00008D8A220FF305043044A8018800AC01854
:1050B00040B20EBD06335208F1E7C046A0460000DC
:1050C00010B501F0B7FD10BD10B501F089FD10BDA0
:1050D00000230321026810B5836083731378FF2BCC
:1050E00005D14368043B9A1A8281002010BDFE2B33
:1050F0000CD10389013303815388446803330B4384
:105100009B185A1C0633A342E8D3EEE7002B03D1C9
:10511000438901334381EFE70320E7E7F0B50E0051
:10512000140085B000930AAB1F780190114B1B88C7
:10513000A34202D1002005B0F0BD0F4903AD042207
:105140002800611801F05AFD002F08D1EB78019A70
:10515000934204D1062E07D0AB78B34204D02A88FC
:105160000027A418A4B2E1E7009B0120002BE2D0A5
:105170001C80E0E78A0A002088090020F0B50E00B4
:10518000417B0700150087B0002925D1144B1A88F0
:105190000E246C442300009138780121FFF7BEFFF4
:1051A0000423002815D0033B24887B730D4BFC811E
:1051B000E4180622210004A801F020FD6B461B8A9A
:1051C0000634063B34602B806B460C9A1B7D1370B3
:1051D0000023180007B0F0BD1900C289D8E7C04607
:1051E000880A002088090020802270B5094E5200EC
:1051F000348803000D000020121B914208DC064891
:105200000A002018190001F0F9FC0120641934800B
:1052100070BDC0468A0A002088090020F0B516003B
:1052200000278C08A40085B00D1B0190EDB2BC4294
:105230000FDC01232A005B42311903A8039301F01C
:10524000DDFC019B039A0948E118FEF761F805B0FF
:10525000F0BDF119042203A801F0D0FC019B039AD0
:10526000D9190248FEF754F80437E0E7001000406F
:10527000F8B580230C4E0D4F328839885B00541AE4
:10528000A4B21D1BAC46002560450BDC9B1A013502
:10529000984207DD06482200091801F0B8FC0023F7
:1052A00034803B802800F8BD8A0A0020880A00204C
:1052B00088090020F0B589B01E0003910EAB1700DD
:1052C0001A88437B0400002B0AD00F9B3200009306
:1052D000390001232000FFF751FF00280CD00AE01D
:1052E00043681D00002A03D005AD6A80FE222A70A3
:1052F000A2689A4202D8042009B0F0BD2B78FF2B97
:10530000F9D0237B002B2CD0002323732B78002B88
:10531000F7D0FE2B43D1039BFF2B03D06B78039A6E
:105320009342EED11F4B02A91A880A235B181A80F8
:10533000002302AA528900930A2302A95B1820784D
:105340000221FFF7EBFE00281BD1636804333B60AA
:105350006B8833800F9B002BCED06B780F9A137025
:10536000CAE703226B8803331343626801329B1838
:10537000A2681D0063609342A7D21B78FF2BC5D1A2
:10538000A3E702AB5989084B0822C91806A801F007
:1053900035FC079B62689342B3D00123C9E7032021
:1053A000AAE7C046880A002088090020F0B58BB023
:1053B000049310AB80CB0D001988002305923B802D
:1053C000427B06009A4214D03A00009308A9FFF7E6
:1053D000D5FE041E57D13A88049B521B9A4200DD29
:1053E0001A00089B0598591901F008FC20000BB021
:1053F000F0BD42680392002904D007AB5980FE211A
:1054000003931970B36804249342EFD9039B1B786C
:10541000FF2BEBD0327B0134002AE7D1FE2BE5D104
:105420001B4B04A91A880A235B181A8004AB5A89FB
:10543000012304A9009309335B1830780221FFF798
:105440006DFE041E13D1039B5A8895421DD2049B06
:105450003073521B9A4200DD1A00291D75680598A9
:10546000491901F0CBFB039B5B883B80BEE704AB93
:105470005989084B0822C91808A801F0BFFB099BED
:1054800072689342D2D10524B0E70624AEE7C04645
:10549000880A002088090020F0B5032485B0013A6D
:1054A0001E000AAB1F8814430134A4B2BD1D651948
:1054B000ADB2009028000191FFF7DAFE0823002822
:1054C00015D002AA073B937013001580009A1800AC
:1054D000DA70019A06211A71FFF786FE210030006A
:1054E000FFF782FE39000B98FFF77EFE00231800BD
:1054F00005B0F0BD73B5040006200E001500FFF7DF
:10550000B7FE0823002812D006216B466A46198090
:10551000042368469370D47016715571FFF764FECA
:10552000142001236043034C2418A37300231800A4
:1055300076BDC04660090020F8B505000E001400D5
:1055400001F04EFB00280FD00C4B621E13430C4A97
:105550000133DB0AAA1800210A48DBB2D20AFDF7A0
:10556000E4FE0027A74200D3F8BDBB109B007919C9
:105570009A590448FDF7CCFE0437F3E7FF07000013
:105580000000FCEF00100040F0B51A4B87B01B88FC
:1055900002AA02930A239B18029A03901A800023FE
:1055A00002AA528900930A2302A95B1803980621D4
:1055B000FFF7B4FD002801D107B0F0BD02AB5C8954
:1055C0000D4B05ADE71804223900280001F016FB49
:1055D0000A4B2E881D88029B3119EA1A064B92B29B
:1055E000C9183800921B01F012FB044BAD1B1D8043
:1055F0000123D5E7880A0020880900208A0A0020B4
:10560000F0B58DB004910790FF21049805920693A0
:10561000129E01F00FFBFE2200240AAB1A70059BBC
:105620003278043B1B1B9BB20393B38809AF002A5B
:1056300050D000223A800E2706AABF18112206A9D0
:10564000521801920093FF213B0007980BAAFFF725
:1056500031FE051E0ED13F88002F15D0049B039A02
:10566000201D1818BA4200DD3A000B9901F0C6FA65
:1056700009AB1F8009AB1B88B380002D06D0069BA9
:105680001C8028000DB0F0BD0625F3E706AA538262
:10569000049B042218190AA901F0B0FA06AB5A8A31
:1056A000032303321A430132A418032109AB1B88D8
:1056B0007288013B9B1A0B43013303999BB2A4B23E
:1056C00099421AD20025521835707280069B059AAD
:1056D0001A80D6E7049A7188079801931219039BE0
:1056E0000097FFF763FE051ECBD103233C88728829
:1056F000013CA41A1C430134D7E7039A9A4204D10F
:105700000123002533707580E0E7039A9A4200D8A0
:1057100085E7012333700023738080E7F0B585B0FF
:1057200001930AAB1B880600009303238768756802
:10573000681DB8420BD31423327802205A432D4BF4
:105740009B185B89002B00D0093005B0F0BD28788C
:10575000FF2826D18020541E1C430134009BA4B294
:10576000E318DA1C7F1B4002874200D3224FBA4263
:10577000E1DAFE2003AA9BB2107051705380EFF360
:10578000108772B6181D1B2380B280080130584361
:105790000A3000F0FBFC00280ED187F31088073098
:1057A000D3E7FE2801D0002822D1688801350330D4
:1057B000184345197560BAE72900039A04350F4864
:1057C000FDF7A6FD21002800019AFFF727FD0B9A9F
:1057D00000996019FFF722FD87F3108814233278AF
:1057E00000205A43034B9B181A8901321A81ACE7F7
:1057F0000320AAE760090020FFFF0000001000401E
:1058000070B50400EFF3108572B6402000F0BEFCC6
:10581000002803D185F31088073070BD2100044AA9
:105820000448FDF775FD85F310880020F5E7C046B4
:1058300000FFFFFF0010004070B505000C0020784D
:10584000002819D0EFF3108672B60C4800F09EFCC9
:1058500000280ED0012300212A780948FDF765FDB4
:1058600086F310882B7801332B702378013B23704B
:10587000E5E786F31088072070BDC0465923000075
:1058800000100040F0B53D4CA544040008AD2A00CE
:10589000237E0593638B0393A38B0493231D43CB38
:1058A00043C21B68201D13602300183300930E238E
:1058B00004AA9B1880220CA91201FFF7A1FE04ABD9
:1058C0000600D88980231B01984222D0002EDDD00B
:1058D00000281ED1E3686269591E294B0B439B1AAD
:1058E000013304A9DB0A0B73264BD2180D23D20A0D
:1058F0004A7304AA9B18180007A9FFF79DFF03002D
:105900002079072B33D104AB1A7B597BFFF7F2FDCB
:1059100019E0EFF3108772B61B238008013058435B
:105920000A3000F033FC002810D187F31088231DC3
:1059300007CD07C307202A681A60059B2376039BBF
:105940006383049BA383104B9D44F0BD04ABDA89B1
:1059500060690CA9FFF7F0FD87F310888022636966
:1059600012019B186361002E00D18FE7B2E7142368
:1059700043430648C018FFF7ABFBE4E7CCF7FFFF53
:10598000FF0700000000FCEF340800006009002061
:10599000F0B589B003921D00437B04000E00002B7C
:1059A0001FD00E2702ABFF1800233A00009306A970
:1059B000FFF7E4FB0523002810D13B889B1B9BB21B
:1059C0009D4209D8069B99192A00039801F008F90D
:1059D000431E9841434201E001235B42180009B095
:1059E000F0BD4768826804239742F7D23A78FF2ACD
:1059F000F4D0017B01330029F0D1FE2AEED1154B02
:105A000002A91A880E235B181A8002ABDA890123D7
:105A100002A900930D335B1820780221FFF77EFB6B
:105A2000002808D17A880623B242D7D96368311D8D
:105A30002073C918C8E702ABD989074B0822C918D7
:105A400006A801F0DBF8079B62689342DDD10523CD
:105A5000C4E7C046880A002088090020F8B5002560
:105A6000142601270E4C3300A2790E4853431958CF
:105A7000002912D1012A10D822681A50C018A38810
:105A80009B18436023890382FFF722FB002805D17E
:105A90000C34012D02D03D00E5E70120F8BDC046E1
:105AA0001C890510600900200300012030B58342E5
:105AB0000AD814245C43054AA558121952688881F3
:105AC00000204D608A600B7030BDC0466009002028
:105AD0008022F0B5234C1201A54403900C000CA8C1
